:020000040800F2
:10000000000002207D2700086D21000875210008EE
:100010007D210008852100088D21000800000000D6
:100020000000000000000000000000009521000812
:10003000A321000800000000B1210008BF21000832
:10004000CD270008CD270008CD270008CD270008C0
:10005000CD270008CD270008CD270008CD270008B0
:10006000CD270008CD270008CD270008CD270008A0
:10007000CD210008CD270008E1210008CD27000888
:10008000CD270008CD270008CD270008CD27000880
:10009000CD270008CD270008CD270008CD27000870
:1000A000CD270008F5210008CD270008CD2700083E
:1000B000CD270008CD270008CD270008CD27000850
:1000C000CD270008CD270008CD270008CD27000840
:1000D000CD27000809220008CD2700081D220008AE
:1000E000CD270008CD270008CD270008CD27000820
:1000F000CD270008CD270008CD270008CD27000810
:10010000CD270008CD270008CD270008CD270008FF
:10011000CD270008CD270008CD270008CD270008EF
:10012000CD270008CD270008CD270008CD270008DF
:10013000CD270008CD270008CD270008CD270008CF
:10014000CD270008CD270008CD270008CD270008BF
:10015000CD270008CD270008CD270008CD270008AF
:10016000CD270008CD270008CD270008CD2700089F
:10017000CD270008CD270008CD270008000000008B
:08018000CD270008CD2700087F
:1001900010B5054C237833B9044B13B10448AFF3C1
:1001A00000800123237010BD040200200000000025
:1001B00014D8000808B5034B1BB103490348AFF33B
:1001C000008008BD000000000802002014D80008CC
:1001D00001F0FF01102A2BDB10F0070F08D010F8F8
:1001E000013B013A8B422DD010F0070F42B3F6D1FC
:1001F000F0B441EA012141EA014122F007047FF015
:1002000000070023F0E80256083C85EA010586EA6B
:10021000010685FA47F5A3FA87F586FA47F6A5FAA7
:1002200087F68EB9EED1F0BC01F0FF0102F00702B3
:1002300032B110F8013B013A83EA010313B1F8D15E
:100240000020704701387047002D06BF354603383F
:10025000073815F0010F07D1013015F4807F02BF78
:10026000013015F4C03F0130F0BC0138704700BFC9
:10027000034613F8012B002AFBD1181A01387047E6
:1002800081F0004102E000BF83F0004330B54FEA47
:1002900041044FEA430594EA050F08BF90EA020FB4
:1002A0001FBF54EA000C55EA020C7FEA645C7FEA47
:1002B000655C00F0E2804FEA5454D4EB5555B8BF6A
:1002C0006D420CDD2C4480EA020281EA030382EADB
:1002D000000083EA010180EA020281EA0303362D6D
:1002E00088BF30BD11F0004F4FEA01314FF4801C40
:1002F0004CEA113102D0404261EB410113F0004F52
:100300004FEA03334CEA133302D0524263EB430308
:1003100094EA050F00F0A780A4F10104D5F1200EA6
:100320000DDB02FA0EFC22FA05F2801841F1000101
:1003300003FA0EF2801843FA05F359410EE0A5F1D5
:1003400020050EF1200E012A03FA0EFC28BF4CF006
:10035000020C43FA05F3C01851EBE37101F00045BC
:1003600007D54FF0000EDCF1000C7EEB00006EEBC9
:100370000101B1F5801F1BD3B1F5001F0CD3490853
:100380005FEA30004FEA3C0C04F101044FEA4452AA
:1003900012F5800F80F09A80BCF1004F08BF5FEA31
:1003A000500C50F1000041EB045141EA050130BD11
:1003B0005FEA4C0C404141EB0101013C28BFB1F523
:1003C000801FE9D291F0000F04BF01460020B1FA6E
:1003D00081F308BF2033A3F10B03B3F120020CDA41
:1003E0000C3208DD02F1140CC2F10C0201FA0CF01F
:1003F00021FA02F10CE002F11402D8BFC2F1200C84
:1004000001FA02F120FA0CFCDCBF41EA0C01904039
:10041000E41AA2BF01EB0451294330BD6FEA040482
:100420001F3C1CDA0C340EDC04F11404C4F120026D
:1004300020FA04F001FA02F340EA030021FA04F37F
:1004400045EA030130BDC4F10C04C4F1200220FAD6
:1004500002F001FA04F340EA0300294630BD21FA14
:1004600004F0294630BD94F0000F83F4801306BFDA
:1004700081F480110134013D4EE77FEA645C18BFCE
:100480007FEA655C29D094EA050F08BF90EA020F65
:1004900005D054EA000C04BF1946104630BD91EA5D
:1004A000030F1EBF0021002030BD5FEA545C05D160
:1004B0004000494128BF41F0004130BD14F580049F
:1004C0003CBF01F5801130BD01F0004545F0FE4113
:1004D00041F470014FF0000030BD7FEA645C1ABF48
:1004E000194610467FEA655C1CBF0B46024650EA7F
:1004F000013406BF52EA033591EA030F41F40021AB
:1005000030BD00BF90F0000F04BF0021704730B530
:100510004FF4806404F132044FF000054FF0000105
:1005200050E700BF90F0000F04BF0021704730B5C6
:100530004FF4806404F1320410F0004548BF40429B
:100540004FF000013EE700BF42004FEAE2014FEAF0
:1005500031014FEA02701FBF12F07F4393F07F4FCB
:1005600081F06051704732F07F4208BF704793F0CE
:100570007F4F04BF41F40021704730B54FF46074E1
:1005800001F0004521F000411CE700BF50EA0102E4
:1005900008BF704730B54FF000050AE050EA01028D
:1005A00008BF704730B511F0004502D5404261EBFD
:1005B00041014FF4806404F132045FEA915C3FF43E
:1005C000D8AE4FF003025FEADC0C18BF03325FEADB
:1005D000DC0C18BF033202EBDC02C2F1200300FA8C
:1005E00003FC20FA02F001FA03FE40EA0E0021FAB1
:1005F00002F11444BDE600BF70B54FF0FF0C4CF49F
:10060000E06C1CEA11541DBF1CEA135594EA0C0F50
:1006100095EA0C0F00F0DEF82C4481EA030621EA8B
:100620004C5123EA4C5350EA013518BF52EA0335C6
:1006300041F4801143F4801338D0A0FB02CE4FF078
:100640000005E1FB02E506F00042E0FB03E54FF0A8
:100650000006E1FB03569CF0000F18BF4EF0010EA0
:10066000A4F1FF04B6F5007F64F5407404D25FEA9C
:100670004E0E6D4146EB060642EAC62141EA55514F
:100680004FEAC52040EA5E504FEACE2EB4F1FD0C91
:1006900088BFBCF5E06F1ED8BEF1004F08BF5FEA0F
:1006A000500E50F1000041EB045170BD06F00046C1
:1006B00046EA010140EA020081EA0301B4EB5C046E
:1006C000C2BFD4EB0C0541EA045170BD41F4801166
:1006D0004FF0000E013C00F3AB8014F1360FDEBF8B
:1006E000002001F0004170BDC4F10004203C35DA67
:1006F0000C341BDC04F11404C4F1200500FA05F3EA
:1007000020FA04F001FA05F240EA020001F000428A
:1007100021F0004110EBD37021FA04F642EB060100
:100720005EEA430E08BF20EAD37070BDC4F10C042A
:10073000C4F1200500FA04F320FA05F001FA04F2EE
:1007400040EA020001F0004110EBD37041F10001DA
:100750005EEA430E08BF20EAD37070BDC4F12005E5
:1007600000FA05F24EEA020E20FA04F301FA05F24D
:1007700043EA020321FA04F001F0004121FA04F2F5
:1007800020EA020000EBD3705EEA430E08BF20EAC5
:10079000D37070BD94F0000F0FD101F000464000FF
:1007A00041EB010111F4801F08BF013CF7D041EA81
:1007B000060195F0000F18BF704703F00046520085
:1007C00043EB030313F4801F08BF013DF7D043EA56
:1007D0000603704794EA0C0F0CEA135518BF95EA0C
:1007E0000C0F0CD050EA410618BF52EA4306D1D193
:1007F00081EA030101F000414FF0000070BD50EAB2
:10080000410606BF1046194652EA430619D094EA3B
:100810000C0F02D150EA013613D195EA0C0F05D125
:1008200052EA03361CBF104619460AD181EA030179
:1008300001F0004141F0FE4141F470014FF0000031
:1008400070BD41F0FE4141F4780170BD70B54FF0CC
:10085000FF0C4CF4E06C1CEA11541DBF1CEA13554C
:1008600094EA0C0F95EA0C0F00F0A7F8A4EB05042E
:1008700081EA030E52EA03354FEA013100F0888025
:100880004FEA03334FF0805545EA131343EA1263EE
:100890004FEA022245EA111545EA10654FEA0026A3
:1008A0000EF000419D4208BF964244F1FD0404F55C
:1008B000407402D25B084FEA3202B61A65EB0305B8
:1008C0005B084FEA32024FF480104FF4002CB6EB75
:1008D000020E75EB030E22BFB61A754640EA0C00F5
:1008E0005B084FEA3202B6EB020E75EB030E22BF35
:1008F000B61A754640EA5C005B084FEA3202B6EB76
:10090000020E75EB030E22BFB61A754640EA9C0034
:100910005B084FEA3202B6EB020E75EB030E22BF04
:10092000B61A754640EADC0055EA060E18D04FEAC2
:10093000051545EA16754FEA06164FEAC30343EA62
:1009400052734FEAC2025FEA1C1CC0D111F4801F2F
:100950000BD141EA00014FF000004FF0004CB6E728
:1009600011F4801F04BF01430020B4F1FD0C88BFC7
:10097000BCF5E06F3FF6AFAEB5EB030C04BFB6EBD2
:10098000020C5FEA500C50F1000041EB045170BDC5
:100990000EF0004E4EEA113114EB5C04C2BFD4EBF2
:1009A0000C0541EA045170BD41F480114FF0000E76
:1009B000013C90E645EA060E8DE60CEA135594EAF2
:1009C0000C0F08BF95EA0C0F3FF43BAF94EA0C0FF5
:1009D0000AD150EA01347FF434AF95EA0C0F7FF46A
:1009E00025AF104619462CE795EA0C0F06D152EABE
:1009F00003353FF4FDAE1046194622E750EA4106A2
:100A000018BF52EA43067FF4C5AE50EA41047FF4B2
:100A10000DAF52EA43057FF4EBAE12E74FF0FF3C17
:100A200006E000BF4FF0010C02E000BF4FF0010CE8
:100A30004DF804CD4FEA410C7FEA6C5C4FEA430C61
:100A400018BF7FEA6C5C1BD001B050EA410C0CBFB0
:100A500052EA430C91EA030F02BF90EA020F002012
:100A6000704710F1000F91EA030F58BF994208BF79
:100A700090422CBFD8176FEAE37040F00100704736
:100A80004FEA410C7FEA6C5C02D150EA013C07D18D
:100A90004FEA430C7FEA6C5CD6D152EA033CD3D0D8
:100AA0005DF8040B704700BF8446104662468C46D2
:100AB0001946634600E000BF01B5FFF7B7FF002805
:100AC00048BF10F1000F01BD4DF808EDFFF7F4FF2E
:100AD0000CBF012000205DF808FB00BF4DF808EDB9
:100AE000FFF7EAFF34BF012000205DF808FB00BFDC
:100AF0004DF808EDFFF7E0FF94BF012000205DF8FE
:100B000008FB00BF4DF808EDFFF7CEFF94BF0120B2
:100B100000205DF808FB00BF4DF808EDFFF7C4FFAB
:100B200034BF012000205DF808FB00BF4FEA410CF4
:100B30007FEA6C5C02D150EA013C0AD14FEA430CD7
:100B40007FEA6C5C02D152EA033C02D14FF0000014
:100B500070474FF0010070474FEA410212F5001252
:100B600015D211D56FF47873B3EB625212D94FEAF4
:100B7000C12343F0004343EA505311F0004F23FADE
:100B800002F018BF404270474FF00000704750EA33
:100B9000013005D111F0004008BF6FF000407047F0
:100BA0004FF00000704700BF4A0011D212F500124A
:100BB00011D20DD56FF47873B3EB62520ED44FEAB5
:100BC000C12343F0004343EA505323FA02F0704735
:100BD0004FF00000704750EA013002D14FF0FF3073
:100BE00070474FF0000070474FEA4102B2F1E04316
:100BF00024BFB3F5001CDCF1FE5C0DD901F0004C04
:100C00004FEAC0024CEA5070B2F1004F40EB830053
:100C100008BF20F00100704711F0804F21D113F17F
:100C20003872BCBF01F00040704741F480114FEAB8
:100C30005252C2F11802C2F1200C10FA0CF320FA41
:100C400002F018BF40F001004FEAC1234FEAD3235E
:100C500003FA0CFC40EA0C0023FA02F34FEA4303C8
:100C6000CCE77FEA625307D150EA01331EBF4FF051
:100C7000FE4040F44000704701F0004040F0FE406C
:100C800040F40000704700BF53B94AB9002908BFBB
:100C900000281CBF4FF0FF314FF0FF3000F06AB961
:100CA000ADF1080C6DE904CE00F006F8DDF804E0C3
:100CB000DDE9022304B070472DE9F047089D0C469A
:100CC000002B4ED194468C458646B2FA82F262D908
:100CD0004AB1C2F12003914020FA03F30CFA02FC5E
:100CE000194300FA02FE4FEA1C471FFA8CF6B1FBCB
:100CF000F7F44FEA1E4307FB141143EA014304FBD8
:100D000006F199420AD91CEB030304F1FF3080F08D
:100D10001281994240F20F81023C6344591A1FFA32
:100D20008EF3B1FBF7F007FB101143EA014300FB20
:100D300006F69E420AD91CEB030300F1FF3180F056
:100D4000FC809E4240F2F980634402389B1B40EADB
:100D5000044000211DB1D3400022C5E90032BDE8A6
:100D6000F0878B4205D90DB1C5E900010021084685
:100D7000F5E7B3FA83F1002946D1A34202D39042AA
:100D8000C0F0F080861A64EB03030120002DE6D04A
:100D9000C5E90063E3E7002A40F09080A1EB0C0472
:100DA0004FEA1C481FFA8CF70121B4FBF8F64FEA12
:100DB0001E4308FB164443EA044307FB06F098422F
:100DC00008D91CEB030306F1FF3402D2984200F26B
:100DD000CD8026461C1A1FFA8EF3B4FBF8F008FBF0
:100DE000104443EA044300FB07F79F4208D91CEB79
:100DF000030300F1FF3402D29F4200F2B08020468C
:100E0000DB1B40EA0640A5E7C1F120068B4022FA31
:100E100006F71F4320FA06FC04FA01F343EA0C0329
:100E2000F44000FA01F8380C4FEA1349B4FBF0FE25
:100E30001FFA87FC00FB1E4449EA04440EFB0CF930
:100E4000A14502FA01F20AD93C190EF1FF3A80F0ED
:100E50008480A14540F28180AEF1020E3C44A4EBB7
:100E600009041FFA83F9B4FBF0F300FB134449EAC9
:100E7000044403FB0CFCA44507D93C1903F1FF30E3
:100E800067D2A44565D9023B3C4443EA0E40A0FB2F
:100E90000293A4EB0C049C42CE469C4651D34ED008
:100EA00055B1B8EB0E0364EB0C0404FA06F6CB4024
:100EB0001E43CC40C5E90064002150E7C2F1200385
:100EC00020FA03F10CFA02FC24FA03F394400C43D9
:100ED0004FEA1C4800FA02FE1FFA8CF7B3FBF8F049
:100EE00008FB1031230C43EA014300FB07F1994250
:100EF00008D91CEB030300F1FF362CD299422AD902
:100F0000023863445B1AA4B2B3FBF8F108FB113357
:100F100044EA034401FB07F3A34208D91CEB040491
:100F200001F1FF3613D2A34211D902396444E41A05
:100F300041EA004139E70446F0E6084606E7C845BD
:100F4000AED2B9EB020E63EB070C0138A8E73146CD
:100F5000EDE7034699E73046D4E7D6467FE763449A
:100F600002384DE70646234608460FE7023E634433
:100F700030E700BF704700BF80B582B000AF0023EC
:100F80007B60104B1B6B0F4A43F4001313630D4B34
:100F90001B6B03F400137B607B68002200210C2094
:100FA00001F087FD0C2001F0A0FD002200210E20A1
:100FB00001F07FFD0E2001F098FD00BF0837BD460F
:100FC00080BD00BF0038024080B58EB000AF07F191
:100FD0001C0300221A605A609A60DA601A615A6132
:100FE0009A613B4600221A605A609A60DA601A6180
:100FF0005A619A612F4B4FF020421A602D4B2E4AB6
:101000005A602C4B06229A602A4B0022DA60294B48
:1010100000221A61274B10225A61264B00229A6146
:10102000244B0022DA61234B00221A62214B00225A
:101030005A62204B4FF480529A621E4B0022DA62B1
:101040001C4B4FF480421A631A4B00225A63194B0F
:1010500000229A63174B00225A640223FB610F237C
:101060003B6210237B620023BB621023FB621123CF
:101070003B6300237B6304233B600F237B600923D6
:10108000BB600023FB6010233B6111237B610023C5
:10109000BB613A4607F11C031946064803F014FBEE
:1010A0000346002B01D000F0B5FF00BF3837BD4626
:1010B00080BD00BF20020020040100A080B586B0E2
:1010C00000AF3B1D00221A605A609A60DA601A6114
:1010D0002C4B1B68002B51D12A4B01221A60002394
:1010E0003B60294B9B6B284A43F001039363264BDB
:1010F0009B6B03F001033B603B684FF480537B60C4
:101100000223BB600023FB6003233B610C237B6154
:101110003B1D19461D4802F07FF84FF680737B6037
:101120000223BB600023FB6003233B610C237B6134
:101130003B1D1946164802F06FF84CF233737B6082
:101140000223BB600023FB6003233B610C237B6114
:101150003B1D19460F4802F05FF84FF480537B6047
:101160000223BB600023FB6003233B610C237B61F4
:101170003B1D1946084802F04FF800E000BF183741
:10118000BD4680BD700200200038024000140240BD
:1011900000100240000C02400018024080B582B0EE
:1011A00000AF7860FFF78AFF00BF0837BD4680BDFB
:1011B00080B58EB000AF07F1240300221A605A6098
:1011C0009A60DA601A6100233B62774B1B6B764AA8
:1011D00043F010031363744B1B6B03F010033B626B
:1011E0003B6A0023FB61704B1B6B6F4A43F00403A7
:1011F00013636D4B1B6B03F00403FB61FB6900235E
:10120000BB61694B1B6B684A43F020031363664B59
:101210001B6B03F02003BB61BB6900237B61624B46
:101220001B6B614A43F0800313635F4B1B6B03F03E
:1012300080037B617B6900233B615B4B1B6B5A4ADC
:1012400043F001031363584B1B6B03F001033B6135
:101250003B690023FB60544B1B6B534A43F0020372
:101260001363514B1B6B03F00203FB60FB6800230D
:10127000BB604D4B1B6B4C4A43F0080313634A4B56
:101280001B6B03F00803BB60BB6800237B60464B0D
:101290001B6B454A43F040031363434B1B6B03F046
:1012A00040037B607B6800224FF4C8613F4802F036
:1012B00067F901224FF400413D4802F061F9002234
:1012C00003213C4802F05CF91C237B620023BB62D3
:1012D0000123FB6207F124031946364801F09CFF05
:1012E00040237B620123BB620223FB6200233B633A
:1012F00007F1240319462D4801F08EFF4FF4807347
:101300007B620023BB620023FB6207F124031946C2
:10131000264801F081FF4FF4C0637B620123BB626A
:101320000023FB6202233B6307F1240319461F4895
:1013300001F072FF01237B620023BB620023FB628A
:1013400007F1240319461C4801F066FF01237B6264
:101350000023BB620223FB6207F1240319461748EE
:1013600001F05AFF4FF400437B620123BB6200236C
:10137000FB6200233B6307F1240319460C4801F08C
:101380004BFF03237B620123BB620023FB6200232C
:101390003B6307F124031946064801F03DFF00BFF7
:1013A0003837BD4680BD00BF0038024000140240FF
:1013B0000004024000100240000802400000024009
:1013C00090B597B004AFB64B32229A80B44B01224D
:1013D0001A7001F0FDF900F091F9FFF7E9FEFFF74F
:1013E000CBFDFFF7F1FD01F0ABF800F0F9FF01F0E4
:1013F0007DF800F015FE01F017F80122A949AA486E
:1014000003F05DFDA94803F0F7F907F0E5FD64205E
:1014100001F050FA08F000FB08F060FB642001F0D6
:1014200049FA00F0D5F90346002B01D100F082FB08
:101430004FF6FF7007F0D2FF00F060FD984B1B786D
:10144000012B40F0F380292008F01CFB03461B020F
:101450001CB2282008F016FB03461BB22343A7F852
:1014600046302B2008F00EFB03461B021CB22A203C
:1014700008F008FB03461BB22343A7F844302D2095
:1014800008F000FB03461B021CB22C2008F0FAFAFD
:1014900003461BB22343A7F84230B7F9463007EEA4
:1014A000903AF8EEE77A9FED827A67EE877A9FEDC1
:1014B000817A77EEC77A804BC3ED007AB7F9443072
:1014C00007EE903AF8EEE77A9FED797A67EE877A41
:1014D0009FED7A7A77EEC77A774BC3ED017AB7F949
:1014E000423007EE903AF8EEE77A9FED717A67EEB8
:1014F000877A9FED737A77EEC77A6F4BC3ED027AE6
:10150000B7F94620B7F94410B7F94230381D0093B7
:101510000B466C490AF03CF84FF4784302933B1DAC
:10152000019318230093D2234FF4C872782100202E
:1015300008F0EEF96049644808F0ECFA6349624843
:1015400008F01BFB6149624808F09EFB5F49614857
:1015500008F036FC524B5B881A465F4B1A605B4AB8
:101560005C495B4808F006FE03469AB24C4B5A8031
:101570004B4B5B881846FEF7D5FF45A3D3E9002304
:10158000FFF73AF802460B4610461946FFF72CFBC8
:101590000346434AD360424B1B7D012B22D14F4B64
:1015A0001B68002B1ED04D4B1B6807EE903AF8EEDF
:1015B000E77A9FED4B7AC7EE876A16EE900AFEF740
:1015C000C3FF02460B4634A1D1E90001FFF73EF903
:1015D00002460B4610461946FFF706FB0346304A03
:1015E000136103E02E4B4FF000021A612C4B5A8816
:1015F0002B4B9B889A4202D3294B02221A70394BFB
:101600001B78012B12D1384B1B78002B0ED1244BA9
:101610005B881946224BD3ED037A344AB0EE670A51
:10162000052000F041FB324B01221A702D4B1B7834
:10163000002B19D001F032F902462E4B1B68D31A49
:10164000B3F57A6F10D301F029F90346294A1360E4
:10165000274B1B78DBB2002B06D01421234800F067
:10166000CFFA234B00221A7001F018F90246224BE0
:101670001B68D31A322B7FF6DFAE094809F0A0F8B9
:1016800001F00CF903461C4A1360D5E6AFF3008065
:101690007B14AE47E17A843F0000009C703DE73F39
:1016A000DC020020940200200C0400207C030020B7
:1016B00040DA7F38CDCCCC3EF4020020CDCC0C3FBC
:1016C000295C8F3E30D80008B805002000030020B8
:1016D000EC0500201C060020100300204806002016
:1016E00000007A44D8020020760200207802002010
:1016F0008C020020900200201403002080B594B0DA
:1017000000AF07F1200330220021184609F0A3FFA3
:1017100007F10C0300221A605A609A60DA601A61BD
:101720000023BB60284B1B6C274A43F08053136493
:10173000254B1B6C03F08053BB60BB6800237B60B0
:10174000224B1B68214A43F4804313601F4B1B68E4
:1017500003F480437B607B6802233B620123FB62CE
:1017600010233B630223BB630023FB6308233B641A
:10177000A8237B640223BB640423FB6407F12003DA
:10178000184601F017FF0346002B01D000F042FC81
:101790000F23FB6002233B6100237B614FF4A053C6
:1017A000BB614FF48053FB6107F10C030521184620
:1017B00002F078F90346002B01D000F02BFC00BFAB
:1017C0005037BD4680BD00BF003802400070004069
:1017D00080B584B004AF4FF4784302933E4B01933D
:1017E00018230093D223F0221E21002008F090F845
:1017F00000224021394801F0C3FE642001F05AF86C
:1018000001224021354801F0BBFE642001F052F86E
:101810004FF4FA623249334800F074F80346002B63
:101820000ED04FF4784302932F4B0193182300936B
:10183000D223F0223C21002008F06AF8012347E07F
:101840004FF47A722649294800F05CF80346002BD1
:101850000ED04FF478430293254B01931823009345
:10186000D223F0223C21002008F052F802232FE07E
:1018700040F6B8321A491F4800F044F80346002BDE
:101880000ED04FF4784302931B4B0193182300931F
:10189000D223F0223C21002008F03AF8032317E07D
:1018A00000F0B8F80346002B01D0002310E0134BE2
:1018B00001221A704FF4FC630293114B0193182319
:1018C0000093D223F0223C21002008F021F80023CD
:1018D0001846BD4680BD00BF44D800080014024031
:1018E00054D8000858D8000860D8000870D80008FC
:1018F00078D8000888D8000898D80008D7020020B7
:10190000A8D8000880B596B004AFF860B960134657
:10191000FB80394B00221A80384B00221A7040227B
:101920000021374809F097FEF868FEF7A1FC03464E
:101930009AB26423F968334803F02FFA00F0AEFF3F
:1019400078644CE02D4B1B78002B2AD007F1100354
:101950002B4A2D49184609F01BFE4FF47843029399
:1019600007F11003019318230093D223F0224FF4C0
:10197000B471002007F0CCFFB968214809F073FE6C
:101980000346002B01D0002332E020491C4809F017
:101990006AFE0346002B01D0012329E0174B0022E9
:1019A0001A7000F003FA00F079FA034687F8433022
:1019B00097F84330012B0FD14FF478430293144B27
:1019C000019310230093D223F0224FF4C37100201F
:1019D00007F09EFF02230BE00A2000F06BFF00F0EF
:1019E0005DFF02467B6CD21AFB889A42AAD303237E
:1019F00018464837BD4680BDD4020020D6020020DC
:101A0000940200200C040020B8D80008C4D80008B4
:101A1000CCD8000880B594B004AF38461E4B1F4A9E
:101A20001F4909F0B5FD4FF4784302931D4B019314
:101A300018230093D223F0229621002007F068FF9C
:101A40003B4644F6206218491846FFF75BFF034601
:101A5000002B0ED14FF478430293144B01931823BB
:101A60000093D223F0229621002007F051FF00239B
:101A70000DE04FF4784302930D4B0193182300932C
:101A8000D223F0229621002007F042FF01231846BE
:101A90004037BD4680BD00BFE0D80008ECD8000844
:101AA000F4D800080CD9000820D900082CD9000867
:101AB00040D9000880B582B000AF78607B681B68B1
:101AC000174A934227D1174B1B881A46164B9B5C2B
:101AD0000A2B03D0134B1B883E2B0CD9114B1B88B0
:101AE0000133114A0021D154104B01221A700D4BC1
:101AF00000221A8005E00B4B1B8801339AB2094B78
:101B00001A80084B1B881A46074B134401221946BA
:101B1000074803F0D4F900BF0837BD4680BD00BFB9
:101B200000100140D402002094020020D6020020C0
:101B30000C04002080B594B004AF3B4627491846FA
:101B400009F026FD3B4641F2883225491846FFF749
:101B5000D9FE3846234B244A244909F019FD4FF495
:101B600078430293224B019318230093D223F0224F
:101B7000B421002007F0CCFE3B4641F288321849E0
:101B80001846FFF7BFFE0346002B11D1194B012267
:101B90001A704FF478430293174B01931823009364
:101BA000D223F022B421002007F0B2FE002310E07F
:101BB000104B00221A704FF4784302930F4B01939D
:101BC00018230093D223F022B421002007F0A0FEB6
:101BD000012318464037BD4680BD00BF50D90008DC
:101BE00054D8000860D9000868D9000878D90008DE
:101BF00094D90008D8020020A8D90008C0D900084C
:101C000080B596B004AF7860396007F108037A6850
:101C10001E49184609F0BCFC07F128033A681C4924
:101C2000184609F0B5FC07F128034FF4FA72194978
:101C30001846FFF767FE0346002B0FD04FF478439A
:101C40000293154B019318230093D223F0224FF4F3
:101C5000A571002007F05CFE012312E03B689AB2F8
:101C6000642379680D4803F098F84FF4FA720C4930
:101C70000C48FFF747FE0346002B01D1002300E08C
:101C8000022318464837BD4680BD00BFF8D900087A
:101C9000FCD900080CDA000810DA00080C04002057
:101CA00024DA00082CDA000880B58CB002AFF860A6
:101CB000B96087ED010A3A607868FEF745FC024694
:101CC0000B4607F11400CDE90023374A102109F033
:101CD0002BFC3B6855221A703B680133AA221A700C
:101CE000FB681A0E3B680233D2B21A70FB681A0CFA
:101CF0003B680333D2B21A70FB681A0A3B6804339C
:101D0000D2B21A703B680533FA68D2B21A70BB6857
:101D10001A0E3B680633D2B21A70BB681A0C3B68C5
:101D20000733D2B21A70BB681A0A3B680833D2B2C2
:101D30001A703B680933BA68D2B21A7000237B620A
:101D40000DE07B6A0A331A463B68134407F114011D
:101D50007A6A0A4412781A707B6A01337B627B6A62
:101D6000072B11DC07F114027B6A13441B78002B4C
:101D7000E7D109E07B6A0A331A463B681344002224
:101D80001A707B6A01337B627B6A072BF2DD3B684A
:101D90001233AA221A703B68133355221A7000BFFF
:101DA0002837BD4680BD00BF30DA000890B583B04B
:101DB00000AF364B1B785B005CB20121344801F068
:101DC000C7FB034603F00103002B0CBF01230023D4
:101DD000DBB25BB223435BB2DAB22C4B1A702B4BF3
:101DE0005B785B005CB204212A4801F0B1FB03463A
:101DF0005BB203F001035BB223435BB2DAB2234B65
:101E00005A70224B9B785B005CB20821214801F09C
:101E10009FFB03465BB203F001035BB223435BB25B
:101E2000DAB21A4B9A70194BDB785B005CB2102166
:101E3000184801F08DFB03465BB203F001035BB26F
:101E400023435BB2DAB2114BDA700023FB7115E069
:101E5000FB790E4AD35CFF2B04D1FB790E4A01219A
:101E6000D15408E0FB79094AD35C002B03D1FB79FC
:101E7000094A0021D154FB790133FB71FB79032B13
:101E8000E6D900BF00BF0C37BD4690BD080000205A
:101E900000000240001002400000002080B483B027
:101EA00000AF0023BB710023FB7118E0FB79114ADE
:101EB000D25CFB791049CB5C9A420DD0FB790D4A7C
:101EC000D35C002B02D1FB790133BB71FA79FB792A
:101ED0000849895C084AD154FB790133FB71FB79CD
:101EE000032BE3D9BB7918460C37BD465DF8047B5C
:101EF000704700BF000000200C00002080B582B0B9
:101F000000AF00F0CBFC7860274B1B687A68D31ACF
:101F1000B3F5967F44D3FFF7C1FF0346FB70FB7810
:101F2000032B29D1204A7B681360204B1B78002BA0
:101F300009D11E4B01221A701D4B01221A701D4837
:101F400002F05AFC14E01A4B1B78002B0CBF012343
:101F50000023DBB21A46164B1A70154B1B78002B68
:101F600003D0144802F048FC02E0124802F0B4FC2E
:101F7000114B01221A7014E0FB78012B06D10A4A9A
:101F80007B6813600D4B06221A600AE0FB78022B77
:101F900007D1054A7B681360084B05221A6000E0F0
:101FA00000BF0837BD4680BD180300201C03002079
:101FB000DC020020C40300200C03002004000020E9
:101FC00080B582B000AF78607B681B680C4A934292
:101FD00012D1FFF7EBFE0B4B1B78002B0CD00A4BFA
:101FE0001B78002B08D1094B1A78094B1B789A42B1
:101FF00002D0054B01221A7000BF0837BD4680BDD4
:1020000000440140D8020020760200207402002023
:102010007502002080B400AF72B600BF00BFFDE7BC
:1020200080B500AF174B184A1A60164B4FF48272F6
:102030005A60144B00229A60124B0022DA60114B56
:1020400000221A610F4B00225A610E4B4FF40072AE
:102050009A610C4B0022DA610A4B00221A62094B8A
:1020600000225A62074B00229A62064B0A22DA6269
:10207000044801F0F7FE0346002B01D0FFF7CAFF2A
:1020800000BF80BD200300200030014080B58AB031
:1020900000AF786007F1140300221A605A609A605A
:1020A000DA601A617B681B68194A93422BD10023BE
:1020B0003B61184B5B6C174A43F480535364154BD8
:1020C0005B6C03F480533B613B690023FB60114B65
:1020D0001B6B104A43F0010313630E4B1B6B03F0A1
:1020E0000103FB60FB68E0237B610223BB610023EB
:1020F000FB6103233B6205237B6207F1140319464E
:10210000054801F089F800BF2837BD4680BD00BFF3
:1021100000300140003802400000024080B483B02B
:1021200000AF00237B60104B5B6C0F4A43F480438D
:1021300053640D4B5B6C03F480437B607B6800232E
:102140003B60094B1B6C084A43F080531364064BF9
:102150001B6C03F080533B603B6800BF0C37BD46EF
:102160005DF8047B704700BF0038024080B400AFC8
:1021700000BFFDE780B400AF00BFFDE780B400AF53
:1021800000BFFDE780B400AF00BFFDE780B400AF43
:1021900000BFFDE780B400AF00BFBD465DF8047B23
:1021A000704780B400AF00BFBD465DF8047B704748
:1021B00080B400AF00BFBD465DF8047B704780B5BA
:1021C00000AF00F057FB00BF80BD000080B500AF3E
:1021D000024800F0E5FD00BF80BD00BF9404002070
:1021E00080B500AF024800F0DBFD00BF80BD00BF3E
:1021F000F404002080B500AF024802F09CFB00BF51
:1022000080BD00BF7C03002080B500AF024802F013
:1022100087FE00BF80BD00BF0C04002080B500AF6A
:10222000024802F07DFE00BF80BD00BF50040020C8
:1022300080B400AF01231846BD465DF8047B7047AB
:1022400080B582B000AF7860396009F06DFA03465E
:1022500016221A604FF0FF3318460837BD4680BD7E
:1022600080B582B000AF78604FF0FF317868FFF73B
:10227000E7FF00BFFDE780B586B000AFF860B9604A
:102280007A6000237B610AE0AFF300800146BB68FF
:102290005A1CBA60CAB21A707B6901337B617A69D1
:1022A0007B689A42F0DB7B6818461837BD4680BDD4
:1022B00080B586B000AFF860B9607A6000237B61BA
:1022C00009E0BB685A1CBA601B781846AFF300805F
:1022D0007B6901337B617A697B689A42F1DB7B68B9
:1022E00018461837BD4680BD80B483B000AF786013
:1022F0004FF0FF3318460C37BD465DF8047B70473E
:1023000080B483B000AF786039603B684FF400520E
:102310005A60002318460C37BD465DF8047B7047B1
:1023200080B483B000AF7860012318460C37BD46F7
:102330005DF8047B704780B485B000AFF860B96089
:102340007A60002318461437BD465DF8047B704759
:1023500080B586B000AF7860144A154BD31A7B6104
:102360007B693B61134B1B68002B02D1114B124A56
:102370001A60104B1A687B6813443A699A4207D274
:1023800009F0D2F903460C221A604FF0FF3309E03E
:10239000084B1B68FB60074B1A687B681344054AAF
:1023A0001360FB6818461837BD4680BD0000022048
:1023B0000004000078030020A007002080B400AFD4
:1023C000064BD3F88830054A43F47003C2F88830CE
:1023D00000BFBD465DF8047B704700BF00ED00E024
:1023E00080B500AF0E4B0F4A1A600D4BA7225A6002
:1023F0000B4B00229A600A4B4FF47A72DA60084B5A
:1024000000221A61064B00229A61054802F0A4F9E5
:102410000346002B01D0FFF7FDFD00BF80BD00BFCC
:102420007C0300200044014080B500AF0E4B0F4AF2
:102430001A600D4BA7225A600B4B00229A600A4B80
:102440004FF47A72DA60084B00221A61064B0022C0
:102450009A61054802F080F90346002B01D0FFF78E
:10246000D9FD00BF80BD00BFC4030020004801406B
:1024700080B584B000AF78607B681B68184A9342CF
:1024800016D10023FB60174B5B6C164A43F40033F4
:102490005364144B5B6C03F40033FB60FB68002255
:1024A0000021192000F005FB192000F01EFB12E0AE
:1024B0007B681B680C4A93420DD10023BB60094B1B
:1024C0005B6C084A43F480235364064B5B6C03F453
:1024D0008023BB60BB6800BF1037BD4680BD00BF16
:1024E00000440140003802400048014080B500AF80
:1024F000114B124A1A60104B4FF4E1325A600E4BE6
:1025000000229A600C4B0022DA600B4B00221A6109
:10251000094B0C225A61084B00229A61064B00229B
:10252000DA61054802F0ECFB0346002B01D0FFF70F
:1025300071FD00BF80BD00BF0C04002000100140F1
:1025400080B500AF114B124A1A60104B4FF4E132C4
:102550005A600E4B00229A600C4B0022DA600B4B43
:1025600000221A61094B0C225A61084B00229A6121
:10257000064B0022DA61054802F0C2FB0346002B3D
:1025800001D0FFF747FD00BF80BD00BF5004002011
:102590000048004080B58CB000AF786007F11C03A4
:1025A00000221A605A609A60DA601A617B681B68C0
:1025B000694A934235D10023BB61684B5B6C674A23
:1025C00043F010035364654B5B6C03F01003BB6175
:1025D000BB6900237B61614B1B6B604A43F00103C5
:1025E00013635E4B1B6B03F001037B617B694FF44C
:1025F000C063FB6102233B6200237B620323BB6257
:102600000723FB6207F11C031946554800F004FE3E
:1026100000220021252000F04CFA252000F065FA68
:1026200096E07B681B684F4A934240F091800023FC
:102630003B614A4B1B6C494A43F480231364474B6C
:102640001B6C03F480233B613B690023FB60434B1D
:102650001B6B424A43F002031363404B1B6B03F0B6
:102660000203FB60FB684FF44063FB6102233B62A3
:1026700000237B620323BB620723FB6207F11C0379
:102680001946394800F0C8FD384B394A1A60374BB3
:102690004FF000625A60354B00229A60334B0022A3
:1026A000DA60324B4FF480621A61304B00225A617B
:1026B0002E4B00229A612D4B0022DA612B4B002217
:1026C0001A622A4B00225A62284800F029FA03466F
:1026D000002B01D0FFF79EFC7B68244A9A63234AB3
:1026E0007B689363234B244A1A60224B4FF00062AD
:1026F0005A60204B40229A601E4B0022DA601D4B2C
:102700004FF480621A611B4B00225A61194B002260
:102710009A61184B0022DA61164B00221A62154B9F
:1027200000225A62134800F0FBF90346002B01D047
:10273000FFF770FC7B680F4A5A630E4A7B6893630D
:1027400000220021272000F0B4F9272000F0CDF965
:1027500000BF3037BD4680BD001001400038024048
:1027600000000240004800400004024094040020A1
:1027700028600240F404002058600240DFF834D0A2
:102780000D480E490E4A002302E0D458C4500433C9
:10279000C4188C42F9D30B4A0B4C002301E01360A0
:1027A0000432A242FBD3FFF709FE08F0C3FFFEF795
:1027B00007FE7047000002200000002004020020F5
:1027C000000E010804020020A0070020FEE7000020
:1027D00080B500AF0E4B1B680D4A43F400731360C5
:1027E0000B4B1B680A4A43F480631360084B1B6859
:1027F000074A43F480731360032000F04FF90F2061
:1028000000F008F8FFF78AFC0023184680BD00BFDF
:10281000003C024080B582B000AF7860124B1A686D
:10282000124B1B7819464FF47A73B3FBF1F3B2FBEA
:10283000F3F3184600F067F90346002B01D001239B
:102840000EE07B680F2B0AD8002279684FF0FF302A
:1028500000F02FF9064A7B681360002300E0012393
:1028600018460837BD4680BD100000201800002023
:102870001400002080B400AF064B1B781A46064BAC
:102880001B681344044A136000BFBD465DF8047B17
:10289000704700BF180000205405002080B400AF2E
:1028A000034B1B681846BD465DF8047B704700BFAC
:1028B0005405002080B584B000AF7860FFF7EEFFCC
:1028C000B8607B68FB60FB68B3F1FF3F05D00A4B43
:1028D0001B781A46FB681344FB6000BFFFF7DEFF5E
:1028E0000246BB68D31AFA689A42F7D800BF00BF05
:1028F0001037BD4680BD00BF1800002080B485B0F1
:1029000000AF78607B6803F00703FB600C4BDB686B
:10291000BB60BA684FF6FF031340BB60FB681A0246
:10292000BB68134343F0BF6343F40033BB60044A06
:10293000BB68D36000BF1437BD465DF8047B7047A9
:1029400000ED00E080B400AF044BDB681B0A03F02D
:1029500007031846BD465DF8047B704700ED00E0B4
:1029600080B483B000AF0346FB7197F90730002BAA
:102970000BDBFB7903F01F02074997F907305B096E
:10298000012000FA02F241F8232000BF0C37BD46B7
:102990005DF8047B704700BF00E100E080B483B0C5
:1029A00000AF03463960FB7197F90730002B0ADB53
:1029B0003B68DAB20C4997F907301201D2B20B44E6
:1029C00083F800230AE03B68DAB20849FB7903F098
:1029D0000F03043B1201D2B20B441A7600BF0C372E
:1029E000BD465DF8047B704700E100E000ED00E0CB
:1029F00080B489B000AFF860B9607A60FB6803F01A
:102A00000703FB61FB69C3F10703042B28BF042301
:102A1000BB61FB690433062B02D9FB69033B00E071
:102A200000237B614FF0FF32BB6902FA03F3DA4304
:102A3000BB681A407B699A404FF0FF317B6901FA0D
:102A400003F3D9437B680B40134318462437BD4634
:102A50005DF8047B7047000080B582B000AF7860FD
:102A60007B68013BB3F1807F01D301230FE00A4A69
:102A70007B68013B53600F214FF0FF30FFF78EFF63
:102A8000054B00229A60044B07221A600023184667
:102A90000837BD4680BD00BF10E000E080B582B0C1
:102AA00000AF78607868FFF729FF00BF0837BD46A0
:102AB00080BD80B586B000AF0346B9607A60FB7315
:102AC00000237B61FFF73EFF78617A68B968786917
:102AD000FFF78EFF024697F90F3011461846FFF7B1
:102AE0005DFF00BF1837BD4680BD80B582B000AF26
:102AF0000346FB7197F907301846FFF731FF00BF17
:102B00000837BD4680BD80B582B000AF7860786878
:102B1000FFF7A2FF034618460837BD4680BD0000F8
:102B200080B586B000AF786000237B61FFF7B6FE0A
:102B300038617B68002B01D1012399E07B68022278
:102B400083F835207B68002283F834207B681B687B
:102B50001A687B681B6822F001021A600FE0FFF719
:102B60009DFE02463B69D31A052B08D97B682022BB
:102B70005A657B68032283F83520032378E07B685D
:102B80001B681B6803F00103002BE8D17B681B68FE
:102B90001B687B617A69384B13407B617B685A689C
:102BA0007B689B681A437B68DB681A437B681B69F8
:102BB0001A437B685B691A437B689B691A437B688D
:102BC000DB691A437B681B6A13437A6913437B6191
:102BD0007B685B6A042B07D17B68DA6A7B681B6BB6
:102BE00013437A6913437B617B681B687A691A60B7
:102BF0007B681B685B697B617B6923F007037B61F2
:102C00007B685B6A7A6913437B617B685B6A042B30
:102C100017D17B689B6A7A6913437B617B68DB6AA7
:102C2000002B0ED0786800F07BFA0346002B08D00A
:102C30007B6840225A657B68012283F83520012396
:102C400016E07B681B687A695A61786800F032FA8E
:102C50000346FB607B68DB6D3F229A40FB689A600D
:102C60007B6800225A657B68012283F835200023A7
:102C700018461837BD4680BD3F8010F080B584B03F
:102C800000AF78607B689B6DFB60FFF707FEB86064
:102C90007B6893F83530DBB2022B08D07B6880224A
:102CA0005A657B68002283F83420012352E07B6858
:102CB0001B681A687B681B6822F016021A607B6822
:102CC0001B685A697B681B6822F080025A617B6826
:102CD0001B6C002B03D17B689B6C002B07D07B689F
:102CE0001B681A687B681B6822F008021A607B6800
:102CF0001B681A687B681B6822F001021A6013E0E7
:102D0000FFF7CCFD0246BB68D31A052B0CD97B68B4
:102D100020225A657B68032283F835207B680022D5
:102D200083F83420032315E07B681B681B6803F0DD
:102D30000103002BE4D17B68DB6D3F229A40FB68E6
:102D40009A607B68012283F835207B68002283F833
:102D50003420002318461037BD4680BD80B483B0B0
:102D600000AF78607B6893F83530DBB2022B04D07B
:102D70007B6880225A6501230CE07B68052283F87A
:102D800035207B681B681A687B681B6822F001028B
:102D90001A60002318460C37BD465DF8047B704767
:102DA00080B586B000AF78600023BB608E4B1B6897
:102DB0008E4AA2FB03239B0A7B617B689B6D3B6170
:102DC0003B691B68FB607B68DB6D08229A40FB68EF
:102DD0001340002B1AD07B681B681B6803F00403A8
:102DE000002B13D07B681B681A687B681B6822F075
:102DF00004021A607B68DB6D08229A403B699A6086
:102E00007B685B6D43F001027B685A657B68DB6D14
:102E100001229A40FB681340002B12D07B681B688C
:102E20005B6903F08003002B0BD07B68DB6D012214
:102E30009A403B699A607B685B6D43F002027B6855
:102E40005A657B68DB6D04229A40FB681340002BB7
:102E500012D07B681B681B6803F00203002B0BD0A9
:102E60007B68DB6D04229A403B699A607B685B6DEE
:102E700043F004027B685A657B68DB6D10229A4040
:102E8000FB681340002B43D07B681B681B6803F072
:102E90000803002B3CD07B68DB6D10229A403B6915
:102EA0009A607B681B681B6803F48023002B18D092
:102EB0007B681B681B6803F40023002B08D17B6828
:102EC0001B6C002B24D07B681B6C786898471FE034
:102ED0007B689B6C002B1BD07B689B6C7868984749
:102EE00016E07B681B681B6803F48073002B07D116
:102EF0007B681B681A687B681B6822F008021A60EE
:102F00007B681B6C002B03D07B681B6C7868984730
:102F10007B68DB6D20229A40FB681340002B00F099
:102F20008F807B681B681B6803F01003002B00F088
:102F300087807B68DB6D20229A403B699A607B68C2
:102F400093F83530DBB2052B36D17B681B681A68E5
:102F50007B681B6822F016021A607B681B685A693E
:102F60007B681B6822F080025A617B681B6C002B17
:102F700003D17B689B6C002B07D07B681B681A68A9
:102F80007B681B6822F008021A607B68DB6D3F22B9
:102F90009A403B699A607B68012283F835207B6800
:102FA000002283F834207B681B6D002B7ED07B6869
:102FB0001B6D7868984779E07B681B681B6803F491
:102FC0008023002B1DD07B681B681B6803F4002343
:102FD000002B0DD17B685B6C002B31D07B685B6C68
:102FE000786898472CE000BF10000020B5814E1B88
:102FF0007B68DB6B002B23D07B68DB6B78689847A2
:103000001EE07B681B681B6803F48073002B0FD1E4
:103010007B681B681A687B681B6822F010021A60C4
:103020007B68012283F835207B68002283F83420F6
:103030007B68DB6B002B03D07B68DB6B7868984781
:103040007B685B6D002B32D07B685B6D03F0010306
:10305000002B22D07B68052283F835207B681B6813
:103060001A687B681B6822F001021A60BB68013392
:10307000BB607A699A4207D37B681B681B6803F0C0
:103080000103002BF2D100E000BF7B68012283F82E
:1030900035207B68002283F834207B68DB6C002BB2
:1030A00005D07B68DB6C7868984700E000BF183774
:1030B000BD4680BD80B485B000AF78607B681B687A
:1030C000DBB2103B144AA2FB03231B09FB60134A2B
:1030D000FB6813441B781A467B68DA65FB68032B90
:1030E00009D97B681B6823F47F7323F003031A1D3F
:1030F0007B689A6507E07B681B6823F47F7323F085
:1031000003037A6893657B689B6D18461437BD4648
:103110005DF8047B704700BFABAAAAAAF8DA0008E2
:1031200080B485B000AF78600023FB737B689B6A36
:10313000BB607B689B69002B1FD1BB68032B56D8F3
:1031400001A252F823F000BF593100086B3100088A
:1031500059310008EF3100087B68DB6A03F08073A7
:10316000002B46D00123FB7343E07B68DB6AB3F19D
:10317000C07F40D10123FB733DE07B689B69B3F5C1
:10318000005F21D1BB68032B37D801A252F823F08E
:10319000A1310008A7310008A1310008B9310008A9
:1031A0000123FB7330E07B68DB6A03F08073002B44
:1031B00025D00123FB7322E07B68DB6AB3F1C07F7B
:1031C0001FD10123FB731CE0BB68022B03D9BB6832
:1031D000032B03D018E00123FB7315E07B68DB6A47
:1031E00003F08073002B0ED00123FB730BE000BFB4
:1031F0000AE000BF08E000BF06E000BF04E000BF37
:1032000002E000BF00E000BFFB7B18461437BD465C
:103210005DF8047B704700BF80B489B000AF786070
:10322000396000237B6100233B610023BB610023E5
:10323000FB616BE10122FB6902FA03F37B613B68EE
:103240001B687A6913403B613A697B699A4240F096
:103250005A813B685B6803F00303012B05D03B6890
:103260005B6803F00303022B30D17B689B68BB6172
:10327000FB695B00032202FA03F3DB43BA691340E4
:10328000BB613B68DA68FB695B0002FA03F3BA6969
:103290001343BB617B68BA699A607B685B68BB61FA
:1032A0000122FB6902FA03F3DB43BA691340BB61F5
:1032B0003B685B681B0903F00102FB6902FA03F338
:1032C000BA691343BB617B68BA695A603B685B6843
:1032D00003F00303032B17D07B68DB68BB61FB693A
:1032E0005B00032202FA03F3DB43BA691340BB61BC
:1032F0003B689A68FB695B0002FA03F3BA691343FF
:10330000BB617B68BA69DA603B685B6803F0030302
:10331000022B23D1FB69DA087B68083253F822308C
:10332000BB61FB6903F007039B000F2202FA03F362
:10333000DB43BA691340BB613B681A69FB6903F060
:1033400007039B0002FA03F3BA691343BB61FB69ED
:10335000DA087B680832B96943F822107B681B6879
:10336000BB61FB695B00032202FA03F3DB43BA692A
:103370001340BB613B685B6803F00302FB695B00C1
:1033800002FA03F3BA691343BB617B68BA691A6036
:103390003B685B6803F44033002B00F0B4800023EB
:1033A000FB60604B5B6C5F4A43F4804353645D4B4E
:1033B0005B6C03F48043FB60FB685B4AFB699B0822
:1033C000023352F82330BB61FB6903F003039B0017
:1033D0000F2202FA03F3DB43BA691340BB617B6837
:1033E000524A93422BD07B68514A934225D07B6846
:1033F000504A93421FD07B684F4A934219D07B6852
:103400004E4A934213D07B684D4A93420DD07B685D
:103410004C4A934207D07B684B4A934201D1072321
:103420000EE008230CE006230AE0052308E004234D
:1034300006E0032304E0022302E0012300E000236E
:10344000FA6902F0030292009340BA691343BB6128
:103450003549FB699B080233BA6941F823203B4B8D
:103460009B68BB613B69DB43BA691340BB613B6846
:103470005B6803F48013002B03D0BA693B691343E4
:10348000BB61324ABB699360304BDB68BB613B690F
:10349000DB43BA691340BB613B685B6803F400130C
:1034A000002B03D0BA693B691343BB61274ABB6950
:1034B000D360264B5B68BB613B69DB43BA69134051
:1034C000BB613B685B6803F40033002B03D0BA692F
:1034D0003B691343BB611D4ABB6953601B4B1B68AF
:1034E000BB613B69DB43BA691340BB613B685B6806
:1034F00003F48033002B03D0BA693B691343BB61EB
:10350000124ABB691360FB690133FB61FB690F2B36
:103510007FF690AE00BF00BF2437BD465DF8047B48
:10352000704700BF003802400038014000000240F0
:103530000004024000080240000C0240001002405B
:103540000014024000180240001C0240003C0140F0
:1035500080B485B000AF78600B467B807B681A69C9
:103560007B881340002B02D00123FB7301E0002372
:10357000FB73FB7B18461437BD465DF8047B704730
:1035800080B483B000AF78600B467B8013467B70BD
:103590007B78002B03D07A887B689A6103E07B8874
:1035A0001A047B689A6100BF0C37BD465DF8047B46
:1035B0007047000080B586B000AF78607B68002B54
:1035C00001D1012367E27B681B6803F00103002B34
:1035D00075D0884B9B6803F00C03042B0CD0854BF3
:1035E0009B6803F00C03082B12D1824B5B6803F439
:1035F0008003B3F5800F0BD17E4B1B6803F40033BF
:10360000002B5BD07B685B68002B57D1012342E223
:103610007B685B68B3F5803F06D1764B1B68754AC3
:1036200043F4803313601DE07B685B68B3F5A02F23
:103630000CD1704B1B686F4A43F4802313606D4BB1
:103640001B686C4A43F4803313600BE0694B1B68C2
:10365000684A23F480331360664B1B68654A23F481
:10366000802313607B685B68002B13D0FFF716F98B
:10367000386108E0FFF712F902463B69D31A642B60
:1036800001D9032307E25B4B1B6803F40033002BD3
:10369000F0D014E0FFF702F9386108E0FFF7FEF818
:1036A00002463B69D31A642B01D90323F3E1514B42
:1036B0001B6803F40033002BF0D100E000BF7B68EF
:1036C0001B6803F00203002B63D04A4B9B6803F096
:1036D0000C03002B0BD0474B9B6803F00C03082B0B
:1036E0001CD1444B5B6803F48003002B16D1414B83
:1036F0001B6803F00203002B05D07B68DB68012BFD
:1037000001D00123C7E13B4B1B6823F0F8027B6823
:103710001B69DB00374913430B603AE07B68DB68C9
:10372000002B20D0344B01221A60FFF7B7F8386124
:1037300008E0FFF7B3F802463B69D31A022B01D920
:103740000323A8E12B4B1B6803F00203002BF0D0EE
:10375000284B1B6823F0F8027B681B69DB002549B6
:1037600013430B6015E0244B00221A60FFF796F814
:10377000386108E0FFF792F802463B69D31A022B42
:1037800001D9032387E11B4B1B6803F00203002BC5
:10379000F0D17B681B6803F00803002B36D07B68F0
:1037A0005B69002B16D0154B01221A60FFF776F8E3
:1037B000386108E0FFF772F802463B69D31A022B22
:1037C00001D9032367E10B4B5B6F03F00203002B6E
:1037D000F0D01BE0094B00221A60FFF75FF8386158
:1037E0000EE0FFF75BF802463B69D31A022B07D9BC
:1037F000032350E10038024000004742800E474258
:10380000884B5B6F03F00203002BEAD17B681B68D7
:1038100003F00403002B00F097800023FB75814B1D
:103820001B6C03F08053002B0FD10023BB607D4B3A
:103830001B6C7C4A43F0805313647A4B1B6C03F07F
:103840008053BB60BB680123FB75774B1B6803F497
:103850008073002B18D1744B1B68734A43F4807338
:103860001360FFF71BF8386108E0FFF717F802460E
:103870003B69D31A022B01D903230CE16A4B1B6865
:1038800003F48073002BF0D07B689B68012B06D17A
:10389000644B1B6F634A43F0010313671CE07B68B2
:1038A0009B68052B0CD15F4B1B6F5E4A43F00403F2
:1038B00013675C4B1B6F5B4A43F0010313670BE01C
:1038C000584B1B6F574A23F001031367554B1B6F6F
:1038D000544A23F0040313677B689B68002B15D0C0
:1038E000FEF7DCFF38610AE0FEF7D8FF02463B69CD
:1038F000D31A41F28832934201D90323CBE0494BDA
:103900001B6F03F00203002BEED014E0FEF7C6FF9E
:1039100038610AE0FEF7C2FF02463B69D31A41F262
:103920008832934201D90323B5E03E4B1B6F03F06D
:103930000203002BEED1FB7D012B05D1394B1B6C13
:10394000384A23F0805313647B689B69002B00F096
:10395000A180344B9B6803F00C03082B5CD07B6880
:103960009B69022B41D1314B00221A60FEF796FF72
:10397000386108E0FEF792FF02463B69D31A022B3A
:1039800001D9032387E0274B1B6803F00073002B4A
:10399000F0D17B68DA697B681B6A1A437B685B6AD3
:1039A0009B011A437B689B6A5B08013B1B041A431B
:1039B0007B68DB6A1B061B4913434B601B4B0122D0
:1039C0001A60FEF76BFF386108E0FEF767FF0246FA
:1039D0003B69D31A022B01D903235CE0114B1B680E
:1039E00003F00073002BF0D054E0104B00221A605B
:1039F000FEF754FF386108E0FEF750FF02463B69CE
:103A0000D31A022B01D9032345E0064B1B6803F0B0
:103A10000073002BF0D13DE07B689B69012B07D13F
:103A2000012338E000380240007000406000474247
:103A30001B4B5B68FB607B689B69012B28D0FB6894
:103A400003F480027B68DB699A4221D1FB6803F0B2
:103A50003F027B681B6A9A421AD1FA6847F6C07324
:103A600013407A68526A9201934211D1FB6803F4C1
:103A700040327B689B6A5B08013B1B049A4207D17A
:103A8000FB6803F070627B68DB6A1B069A4201D018
:103A9000012300E0002318461837BD4680BD00BF53
:103AA0000038024080B584B000AF786039607B6830
:103AB000002B01D10123CCE0684B1B6803F0070306
:103AC0003A689A420CD9654B3A68D2B21A70634B85
:103AD0001B6803F007033A689A4201D00123B8E05B
:103AE0007B681B6803F00203002B20D07B681B68F7
:103AF00003F00403002B05D0594B9B68584A43F44C
:103B0000E05393607B681B6803F00803002B05D02B
:103B1000534B9B68524A43F460439360504B9B68FD
:103B200023F0F0027B689B684D4913438B607B68F0
:103B30001B6803F00103002B44D07B685B68012BFA
:103B400007D1474B1B6803F40033002B19D1012325
:103B50007FE07B685B68022B03D07B685B68032B8C
:103B600007D13F4B1B6803F00073002B09D10123E1
:103B70006FE03B4B1B6803F00203002B01D10123D4
:103B800067E0374B9B6823F003027B685B6834492E
:103B900013438B60FEF782FEF8600AE0FEF77EFEBC
:103BA0000246FB68D31A41F28832934201D90323BB
:103BB0004FE02B4B9B6803F00C027B685B689B001B
:103BC0009A42EBD1254B1B6803F007033A689A42EF
:103BD0000CD2224B3A68D2B21A70204B1B6803F009
:103BE00007033A689A4201D0012332E07B681B68E0
:103BF00003F00403002B08D0194B9B6823F4E05218
:103C00007B68DB68164913438B607B681B6803F095
:103C10000803002B09D0124B9B6823F460427B6899
:103C20001B69DB000E4913438B6000F021F802464C
:103C30000B4B9B681B0903F00F030A49CB5C22FA6C
:103C400003F3094A1360094B1B681846FEF7E2FDAF
:103C5000002318461037BD4680BD00BF003C02401F
:103C600000380240E0DA00081000002014000020B4
:103C70002DE9B04F90B000AF00237B630023FB63BE
:103C800000233B630023BB63594B9B6803F00C0389
:103C9000082B0DD0082B00F2A180002B02D0042BA2
:103CA00003D09BE0534BBB639BE0534BBB6398E05B
:103CB0004F4B5B6803F03F037B634D4B5B6803F442
:103CC0008003002B28D04A4B5B689B0900223B6293
:103CD0007A623B6AC3F308000021474B03FB01F201
:103CE000002300FB03F31344434AA0FB0212FA62D1
:103CF0000A46BA62FA6A1344FB627B6B0022BB611C
:103D0000FA61D7E90623D7E90A01FCF7BDFF0246AD
:103D10000B461346FB6353E0354B5B689B0900225F
:103D20003B617A613B69C3F3080A4FF0000B5246CE
:103D30005B464FF000004FF00001590141EAD261AB
:103D4000500102460B46B2EB0A0863EB0B094FF039
:103D500000024FF000034FEA891343EA98634FEAE9
:103D60008812B2EB080463EB09054FF000024FF034
:103D70000003EB0043EA5473E20014461D4614EBC3
:103D80000A033B6045EB0B037B604FF000024FF0F2
:103D90000003D7E9004529468B02214643EA9153A7
:103DA00021468A02104619467B6B0022BB60FA60EE
:103DB000D7E90223FCF768FF02460B461346FB6374
:103DC0000B4B5B681B0C03F0030301335B003B638D
:103DD000FA6B3B6BB2FBF3F3BB6302E0054BBB63D7
:103DE00000BFBB6B18464037BD46BDE8B08F00BF73
:103DF000003802400024F40040787D0180B400AF18
:103E0000034B1B681846BD465DF8047B704700BF36
:103E10001000002080B500AFFFF7F0FF0246054B11
:103E20009B689B0A03F007030349CB5C22FA03F368
:103E3000184680BD00380240F0DA000880B500AFB7
:103E4000FFF7DCFF0246054B9B685B0B03F00703A3
:103E50000349CB5C22FA03F3184680BD00380240C8
:103E6000F0DA000880B582B000AF78607B68002B84
:103E700001D101237BE07B685B6A002B08D17B6862
:103E80005B68B3F5827F09D07B680022DA6105E0C8
:103E90007B6800221A617B6800225A617B680022DD
:103EA0009A627B6893F85130DBB2002B06D17B68B5
:103EB000002283F850207868FEF7E8F87B68022239
:103EC00083F851207B681B681A687B681B6822F0A6
:103ED00040021A607B685B6803F482727B689B68AF
:103EE00003F404431A437B68DB6803F400631A435A
:103EF0007B681B6903F002031A437B685B6903F06C
:103F000001031A437B689B6903F400731A437B68BF
:103F1000DB6903F038031A437B681B6A03F08003F4
:103F200042EA03017B689B6A03F400527B681B68CA
:103F30000A431A607B689B691B0C03F004017B68D1
:103F40005B6A03F010027B681B680A435A607B6857
:103F50001B68DA697B681B6822F40062DA617B689F
:103F600000225A657B68012283F8512000231846FD
:103F70000837BD4680BD80B588B000AFF860B96035
:103F80003B601346FB800023FB77FB6893F85030BF
:103F9000012B01D1022326E1FB68012283F8502086
:103FA000FEF77CFCB861FB88FB82FB6893F851301C
:103FB000DBB2012B02D00223FB770BE1BB68002BA5
:103FC00002D0FB88002B02D10123FB7702E1FB68C2
:103FD000032283F85120FB6800225A65FB68BA6807
:103FE0001A63FB68FA889A86FB68FA88DA86FB68A7
:103FF00000229A63FB6800229A87FB680022DA8716
:10400000FB6800225A64FB6800221A64FB689B6804
:10401000B3F5004F0FD1FB681B681A68FB681B687B
:1040200022F040021A60FB681B681A68FB681B6874
:1040300042F480421A60FB681B681B6803F040036F
:10404000402B07D0FB681B681A68FB681B6842F0AE
:1040500040021A60FB68DB68B3F5006F4BD1FB6868
:104060005B68002B02D0FB8A012B3ED1FB681B6BE7
:104070001A88FB681B68DA60FB681B6B9A1CFB687C
:104080001A63FB68DB8E9BB2013B9AB2FB68DA864F
:104090002BE0FB681B689B6803F00203022B12D124
:1040A000FB681B6B1A88FB681B68DA60FB681B6B7C
:1040B0009A1CFB681A63FB68DB8E9BB2013B9AB2C9
:1040C000FB68DA8611E0FEF7E9FB0246BB69D31A0A
:1040D0003A689A4203D83B68B3F1FF3F02D13B688C
:1040E000002B02D10323FB7774E0FB68DB8E9BB2CD
:1040F000002BCED14CE0FB685B68002B02D0FB8A22
:10410000012B40D1FB681A6BFB681B680C331278DB
:104110001A70FB681B6B5A1CFB681A63FB68DB8E0A
:104120009BB2013B9AB2FB68DA862CE0FB681B6805
:104130009B6803F00203022B13D1FB681A6BFB6828
:104140001B680C3312781A70FB681B6B5A1CFB68D7
:104150001A63FB68DB8E9BB2013B9AB2FB68DA867E
:1041600011E0FEF79BFB0246BB69D31A3A689A42FC
:1041700003D83B68B3F1FF3F02D13B68002B02D16B
:104180000323FB7726E0FB68DB8E9BB2002BCDD1AF
:10419000BA693968F86800F055FA0346002B02D076
:1041A000FB6820225A65FB689B68002B0AD100231C
:1041B0003B61FB681B68DB683B61FB681B689B68B5
:1041C0003B613B69FB685B6D002B02D00123FB77F1
:1041D00000E000BFFB68012283F85120FB68002249
:1041E00083F85020FB7F18462037BD4680BD80B540
:1041F0008CB000AFF860B9607A607B800123FB620D
:10420000002387F82B30FB6893F85030012B01D145
:1042100002238AE1FB68012283F85020FEF73EFB6F
:104220007862FB6893F8513087F82330FB685B684D
:10423000FB617B887B8397F82330012B0FD0FB69D0
:10424000B3F5827F07D1FB689B68002B03D197F8F9
:104250002330042B03D0022387F82B305BE1BB68AB
:10426000002B05D07B68002B02D07B88002B03D16C
:10427000012387F82B304EE1FB6893F85130DBB215
:10428000042B03D0FB68052283F85120FB68002231
:104290005A65FB687A689A63FB687A88DA87FB68F4
:1042A0007A889A87FB68BA681A63FB687A88DA8624
:1042B000FB687A889A86FB6800221A64FB680022F1
:1042C0005A64FB681B681B6803F04003402B07D04F
:1042D000FB681B681A68FB681B6842F040021A60A2
:1042E000FB68DB68B3F5006F78D1FB685B68002B77
:1042F00002D07B8B012B66D1FB681B6B1A88FB6895
:104300001B68DA60FB681B6B9A1CFB681A63FB680E
:10431000DB8E9BB2013B9AB2FB68DA8653E0FB6806
:104320001B689B6803F00203022B1BD1FB68DB8E2A
:104330009BB2002B16D0FB6A012B13D1FB681B6BC1
:104340001A88FB681B68DA60FB681B6B9A1CFB68A9
:104350001A63FB68DB8E9BB2013B9AB2FB68DA867C
:104360000023FB62FB681B689B6803F00103012BC1
:1043700019D1FB68DB8F9BB2002B14D0FB681B6844
:10438000DA68FB689B6B92B21A80FB689B6B9A1C85
:10439000FB689A63FB68DB8F9BB2013B9AB2FB68B8
:1043A000DA870123FB62FEF779FA02467B6AD31AA9
:1043B000BA6B9A4207D8BB6BB3F1FF3F03D003231C
:1043C00087F82B30A7E0FB68DB8E9BB2002BA6D1D1
:1043D000FB68DB8F9BB2002BA1D17CE0FB685B68A4
:1043E000002B02D07B8B012B6BD1FB681A6BFB6817
:1043F0001B680C3312781A70FB681B6B5A1CFB6825
:104400001A63FB68DB8E9BB2013B9AB2FB68DA86CB
:1044100057E0FB681B689B6803F00203022B1CD16A
:10442000FB68DB8E9BB2002B17D0FB6A012B14D1EB
:10443000FB681A6BFB681B680C3312781A70FB68F8
:104440001B6B5A1CFB681A63FB68DB8E9BB2013B3B
:104450009AB2FB68DA860023FB62FB681B689B68E4
:1044600003F00103012B19D1FB68DB8F9BB2002BFA
:1044700014D0FB681B68DA68FB689B6BD2B21A70B9
:10448000FB689B6B5A1CFB689A63FB68DB8F9BB2D3
:10449000013B9AB2FB68DA870123FB62FEF7FEF963
:1044A00002467B6AD31ABA6B9A4203D8BB6BB3F14C
:1044B000FF3F02D1BB6B002B03D1032387F82B30C6
:1044C00029E0FB68DB8E9BB2002BA2D1FB68DB8F5F
:1044D0009BB2002B9DD17A6AB96BF86800F0B2F8F4
:1044E0000346002B06D0012387F82B30FB682022DF
:1044F0005A6510E0FB689B68002B0BD100237B61A1
:10450000FB681B68DB687B61FB681B689B687B61E1
:104510007B6900E000BFFB68012283F85120FB6843
:10452000002283F8502097F82B3018463037BD46CC
:1045300080BD000080B588B000AFF860B9603B6016
:104540001346FB71FEF7AAF90246BB6A9B1A3A684A
:104550001344FB61FEF7A2F9B861394B1B685B019C
:104560001B0DFA6902FB03F37B6154E03B68B3F176
:10457000FF3F50D0FEF792F90246BB69D31AFA69A1
:104580009A4202D9FB69002B3DD1FB681B685A682F
:10459000FB681B6822F0E0025A60FB685B68B3F5B9
:1045A000827F11D1FB689B68B3F5004F04D0FB6894
:1045B0009B68B3F5806F07D1FB681B681A68FB68BE
:1045C0001B6822F040021A60FB689B6AB3F5005F2B
:1045D0000FD1FB681B681A68FB681B6822F4005245
:1045E0001A60FB681B681A68FB681B6842F400527B
:1045F0001A60FB68012283F85120FB68002283F8CF
:104600005020032317E07B69002B01D10023FB61BD
:104610007B69013B7B61FB681B689A68BB68134040
:10462000BA689A420CBF01230023DBB21A46FB7919
:104630009A429BD1002318462037BD4680BD00BF5B
:104640001000002080B588B002AFF860B9607A60D1
:104650001B4B1B681B4AA2FB03235B0D4FF47A72B2
:1046600002FB03F37B61FB685B68B3F5827F12D1C9
:104670007B680093BB6800228021F868FFF75AFF2F
:104680000346002B16D0FB685B6D43F02002FB68ED
:104690005A6503230FE07B69002B0AD07B69013B3D
:1046A0007B61FB681B689B6803F08003802BF2D062
:1046B00000E000BF002318461837BD4680BD00BF8C
:1046C00010000020819F5E1680B584B000AFF860B6
:1046D000B9607A60FB68002B01D1012338E0FB68E8
:1046E00093F84930DBB2002B06D1FB68002283F837
:1046F0004820F868FCF752FDFB681A68FB6808332D
:104700001946104601F074FBFB681868FB689B684B
:104710001A46B96801F0D6FBFB685868FB689A68CE
:10472000FB681B6B796801F003FCFB681B68FA6887
:10473000926853F82210FB681B68FA68926841F08F
:10474000010143F82210FB68012283F8492000236D
:1047500018461037BD4680BD80B582B000AF786086
:104760007B68002B01D1012341E07B6893F83D3049
:10477000DBB2002B06D17B68002283F83C207868EE
:10478000FDF776FE7B68022283F83D207B681A687D
:104790007B6804331946104600F0FEF97B6801225D
:1047A00083F846207B68012283F83E207B68012243
:1047B00083F83F207B68012283F840207B68012238
:1047C00083F841207B68012283F842207B68012224
:1047D00083F843207B68012283F844207B68012210
:1047E00083F845207B68012283F83D20002318468A
:1047F0000837BD4680BD000080B485B000AF78604A
:104800007B6893F83D30DBB2012B01D001234EE0F1
:104810007B68022283F83D207B681B68DA687B682E
:104820001B6842F00102DA607B681B68234A9342EE
:1048300022D07B681B68B3F1804F1DD07B681B685A
:104840001F4A934218D07B681B681E4A934213D0BC
:104850007B681B681C4A93420ED07B681B681B4A0E
:10486000934209D07B681B68194A934204D07B6845
:104870001B68184A934211D17B681B689B6803F040
:104880000703FB60FB68062B10D07B681B681A6867
:104890007B681B6842F001021A6007E07B681B68B6
:1048A0001A687B681B6842F001021A6000231846F0
:1048B0001437BD465DF8047B704700BF000001401F
:1048C0000004004000080040000C004000040140CB
:1048D000004001400018004080B483B000AF786011
:1048E0007B681B68DA687B681B6822F00102DA606B
:1048F0007B681B681A6A41F211131340002B0FD119
:104900007B681B681A6A40F244431340002B07D1AE
:104910007B681B681A687B681B6822F001021A60BA
:104920007B68012283F83D20002318460C37BD46E2
:104930005DF8047B704780B582B000AF78607B681B
:104940001B681B6903F00203022B22D17B681B68E2
:10495000DB6803F00203022B1BD17B681B686FF03E
:1049600002021A617B6801221A777B681B689B69C7
:1049700003F00303002B03D0786800F0EEF805E0A5
:10498000786800F0E0F8786800F0F1F87B680022C1
:104990001A777B681B681B6903F00403042B22D180
:1049A0007B681B68DB6803F00403042B1BD17B6866
:1049B0001B686FF004021A617B6802221A777B6819
:1049C0001B689B6903F44073002B03D0786800F0E8
:1049D000C4F805E0786800F0B6F8786800F0C7F829
:1049E0007B6800221A777B681B681B6903F0080349
:1049F000082B22D17B681B68DB6803F00803082BB7
:104A00001BD17B681B686FF008021A617B68042267
:104A10001A777B681B68DB6903F00303002B03D064
:104A2000786800F09AF805E0786800F08CF878680B
:104A300000F09DF87B6800221A777B681B681B6971
:104A400003F01003102B22D17B681B68DB6803F096
:104A50001003102B1BD17B681B686FF010021A61CA
:104A60007B6808221A777B681B68DB6903F4407354
:104A7000002B03D0786800F070F805E0786800F04B
:104A800062F8786800F073F87B6800221A777B6818
:104A90001B681B6903F00103012B0ED17B681B68A7
:104AA000DB6803F00103012B07D17B681B686FF003
:104AB00001021A617868FDF783FA7B681B681B693D
:104AC00003F08003802B0ED17B681B68DB6803F04A
:104AD0008003802B07D17B681B686FF080021A610E
:104AE000786800F003F97B681B681B6903F04003DA
:104AF000402B0ED17B681B68DB6803F04003402B22
:104B000007D17B681B686FF040021A61786800F07B
:104B100038F87B681B681B6903F02003202B0ED13B
:104B20007B681B68DB6803F02003202B07D17B68C0
:104B30001B686FF020021A61786800F0CDF800BFA2
:104B40000837BD4680BD80B483B000AF786000BF39
:104B50000C37BD465DF8047B704780B483B000AF6E
:104B6000786000BF0C37BD465DF8047B704780B4A9
:104B700083B000AF786000BF0C37BD465DF8047BA2
:104B8000704780B483B000AF786000BF0C37BD467B
:104B90005DF8047B7047000080B485B000AF78609A
:104BA00039607B681B68FB607B68404A934213D086
:104BB0007B68B3F1804F0FD07B683D4A93420BD0A6
:104BC0007B683C4A934207D07B683B4A934203D0C0
:104BD0007B683A4A934208D1FB6823F07003FB607C
:104BE0003B685B68FA681343FB607B682F4A93421B
:104BF0002BD07B68B3F1804F27D07B682C4A93423F
:104C000023D07B682B4A93421FD07B682A4A934269
:104C10001BD07B68294A934217D07B68284A93426D
:104C200013D07B68274A93420FD07B68264A934271
:104C30000BD07B68254A934207D07B68244A934275
:104C400003D07B68234A934208D1FB6823F4407366
:104C5000FB603B68DB68FA681343FB60FB6823F08A
:104C600080023B685B691343FB607B68FA681A60EB
:104C70003B689A687B68DA623B681A687B689A626C
:104C80007B680A4A934203D07B680C4A934203D163
:104C90003B681A697B681A637B6801225A6100BF0E
:104CA0001437BD465DF8047B704700BF000001402B
:104CB0000004004000080040000C004000040140D7
:104CC00000400140004401400048014000180040FD
:104CD000001C00400020004080B483B000AF78602A
:104CE00000BF0C37BD465DF8047B704780B483B0CD
:104CF00000AF786000BF0C37BD465DF8047B70479D
:104D000080B582B000AF78607B68002B01D10123B1
:104D10003FE07B6893F83D30DBB2002B06D17B6827
:104D2000002283F83C207868FDF734FC7B6824225D
:104D300083F83D207B681B68DA687B681B6822F477
:104D40000052DA60786800F0DFFD7B681B681A6942
:104D50007B681B6822F490421A617B681B685A6961
:104D60007B681B6822F02A025A617B681B68DA683C
:104D70007B681B6842F40052DA607B6800221A6488
:104D80007B68202283F83D207B68202283F83E2028
:104D9000002318460837BD4680BD80B58AB002AFF3
:104DA000F860B9603B601346FB8000237B61FB68C1
:104DB00093F83D30DBB2202B7CD1BB68002B02D0B6
:104DC000FB88002B01D1012375E0FB6893F83C3090
:104DD000012B01D102236EE0FB68012283F83C2005
:104DE000FB6800221A64FB68212283F83D20FDF74E
:104DF00055FD7861FB68FA889A84FB68FA88DA8442
:104E0000FB689B68B3F5805F08D1FB681B69002BCA
:104E100004D10023FB61BB68BB6103E0BB68FB619D
:104E20000023BB61FB68002283F83C202AE03B683A
:104E300000937B6900228021F86800F01FFB034685
:104E4000002B01D0032336E0FB69002B0BD1BB699B
:104E50001B881A46FB681B68C2F308025A60BB69CC
:104E60000233BB6107E0FB691A78FB681B685A6074
:104E7000FB690133FB61FB68DB8C9BB2013B9AB29F
:104E8000FB68DA84FB68DB8C9BB2002BCFD13B68DC
:104E900000937B6900224021F86800F0EFFA034696
:104EA000002B01D0032306E0FB68202283F83D207D
:104EB000002300E0022318462037BD4680BD80B5A0
:104EC00084B000AFF860B9601346FB80FB6893F8CC
:104ED0003E30DBB2202B1DD1BB68002B02D0FB88FB
:104EE000002B01D1012316E0FB6893F83C30012B25
:104EF00001D102230FE0FB68012283F83C20FB680C
:104F000000221A63FB881A46B968F86800F024FB8F
:104F1000034600E0022318461037BD4680BD00005E
:104F200080B5BAB000AF78607B681B681B68C7F8B3
:104F3000E4307B681B68DB68C7F8E0307B681B687F
:104F40005B69C7F8DC300023C7F8D8300023C7F806
:104F5000D430D7F8E43003F00F03C7F8D830D7F8CF
:104F6000D830002B0FD1D7F8E43003F02003002B0A
:104F700009D0D7F8E03003F02003002B03D0786885
:104F800000F007FC56E2D7F8D830002B00F0DE80A6
:104F9000D7F8DC3003F00103002B06D1D7F8E0305E
:104FA00003F49073002B00F0D180D7F8E43003F0C5
:104FB0000103002B0BD0D7F8E03003F48073002BF3
:104FC00005D07B681B6C43F001027B681A64D7F83C
:104FD000E43003F00403002B0BD0D7F8DC3003F0EF
:104FE0000103002B05D07B681B6C43F002027B6839
:104FF0001A64D7F8E43003F00203002B0BD0D7F883
:10500000DC3003F00103002B05D07B681B6C43F000
:1050100004027B681A64D7F8E43003F00803002B1D
:1050200011D0D7F8E03003F02003002B05D1D7F8DA
:10503000DC3003F00103002B05D07B681B6C43F0D0
:1050400008027B681A647B681B6C002B00F0ED8102
:10505000D7F8E43003F02003002B08D0D7F8E03075
:1050600003F02003002B02D0786800F092FB7B68ED
:105070001B685B6903F04003402B0CBF0123002336
:10508000DBB2C7F8D4307B681B6C03F00803002B3D
:1050900003D1D7F8D430002B4FD0786800F09AFABB
:1050A0007B681B685B6903F04003402B41D17B6840
:1050B0001B681433C7F89C30D7F89C3053E8003F86
:1050C000C7F89830D7F8983023F04003C7F8D030AD
:1050D0007B681B681433D7F8D020C7F8A820C7F81E
:1050E000A430D7F8A410D7F8A82041E80023C7F8C7
:1050F000A030D7F8A030002BD9D17B689B6B002B58
:1051000013D07B689B6B7D4A1A657B689B6B184646
:10511000FDF724FE0346002B16D07B689B6B1B6DAE
:105120007A68926B104698470EE0786800F090F924
:105130000AE0786800F08CF906E0786800F088F9F9
:105140007B6800221A6470E100BF6EE17B681B6B14
:10515000012B40F04A81D7F8E43003F01003002B14
:1051600000F04381D7F8E03003F01003002B00F08B
:105170003C810023BB607B681B681B68BB607B684D
:105180001B685B68BB60BB687B681B685B6903F07E
:105190004003402B40F0B4807B689B6B1B685B68CE
:1051A000A7F8BE30B7F8BE30002B00F040817B6816
:1051B0009B8DB7F8BE209A4280F039817B68B7F8A2
:1051C000BE20DA857B689B6BDB69B3F5807F00F0DE
:1051D00088807B681B680C33C7F88830D7F8883024
:1051E00053E8003FC7F88430D7F8843023F4807345
:1051F000C7F8B8307B681B680C33D7F8B820C7F8FD
:105200009420C7F89030D7F89010D7F8942041E850
:105210000023C7F88C30D7F88C30002BD9D17B68AD
:105220001B6814337B677B6F53E8003F3B673B6F22
:1052300023F00103C7F8B4307B681B681433D7F838
:10524000B420C7F88020FB67F96FD7F8802041E8C9
:105250000023BB67BB6F002BE1D17B681B68143355
:105260003B663B6E53E8003FFB65FB6D23F040035C
:10527000C7F8B0307B681B681433D7F8B020FA66E3
:10528000BB66B96EFA6E41E800237B667B6E002B2D
:10529000E3D17B68202283F83E207B6800221A63DA
:1052A0007B681B680C33FB64FB6C53E8003FBB64FA
:1052B000BB6C23F01003C7F8AC307B681B680C3361
:1052C000D7F8AC20BA657B65796DBA6D41E80023EB
:1052D0003B653B6D002BE3D17B689B6B1846FDF76C
:1052E000CDFC7B689A8D7B68DB8D9BB2D31A9BB219
:1052F0001946786800F0B6F899E000BF9B560008A0
:105300007B689A8D7B68DB8D9BB2D31AA7F8CE3071
:105310007B68DB8D9BB2002B00F08B80B7F8CE3022
:10532000002B00F086807B681B680C33BB63BB6B73
:1053300053E8003F7B637B6B23F49073C7F8C8305E
:105340007B681B680C33D7F8C8207A643B64396CDF
:105350007A6C41E80023FB63FB6B002BE3D17B6895
:105360001B6814337B627B6A53E8003F3B623B6AF5
:1053700023F00103C7F8C4307B681B681433D7F8E7
:10538000C4203A63FB62F96A3A6B41E80023BB62CE
:10539000BB6A002BE3D17B68202283F83E207B6828
:1053A00000221A637B681B680C333B613B6953E83E
:1053B000003FFB60FB6823F01003C7F8C0307B6838
:1053C0001B680C33D7F8C020FA61BB61B969FA6970
:1053D00041E800237B617B69002BE3D1B7F8CE3035
:1053E0001946786800F03EF823E0D7F8E43003F07F
:1053F0008003002B09D0D7F8E03003F08003002BA6
:1054000003D0786800F05DF914E0D7F8E43003F0D9
:105410004003002B0ED0D7F8E03003F04003002B00
:1054200008D0786800F09DF904E000BF02E000BFFA
:1054300000E000BFE837BD4680BD00BF80B483B048
:1054400000AF786000BF0C37BD465DF8047B704745
:1054500080B483B000AF786000BF0C37BD465DF804
:10546000047B704780B483B000AF78600B467B80CC
:1054700000BF0C37BD465DF8047B704780B590B027
:1054800000AFF860B9603B601346FB7150E0BB6C45
:10549000B3F1FF3F4CD0BB6C002B07D0FDF7FEF9FA
:1054A00002463B68D31ABA6C9A4241D2FB681B6829
:1054B0000C33BB62BB6A53E8003F7B627B6A23F418
:1054C000D073FB63FB681B680C33FA6B7A633B6336
:1054D000396B7A6B41E80023FB62FB6A002BE5D154
:1054E000FB681B6814337B617B6953E8003F3B61B9
:1054F0003B6923F00103BB63FB681B681433BA6B81
:105500003A62FB61F9693A6A41E80023BB61BB6911
:10551000002BE5D1FB68202283F83D20FB68202288
:1055200083F83E20FB68002283F83C2003230FE031
:10553000FB681B681A68BB681340BA689A420CBFC4
:1055400001230023DBB21A46FB799A429FD0002345
:1055500018464037BD4680BD80B485B000AFF860C6
:10556000B9601346FB80FB68BA689A62FB68FA88E8
:105570009A85FB68FA88DA85FB6800221A64FB6862
:10558000222283F83E20FB68002283F83C20FB683F
:105590001B69002B07D0FB681B68DA68FB681B6877
:1055A00042F48072DA60FB681B685A69FB681B680A
:1055B00042F001025A61FB681B68DA68FB681B68ED
:1055C00042F02002DA60002318461437BD465DF829
:1055D000047B704780B495B000AF78607B681B682F
:1055E0000C337B637B6B53E8003F3B633B6B23F4E3
:1055F0009073FB647B681B680C33FA6C3A64FB6342
:10560000F96B3A6C41E80023BB63BB6B002BE5D11F
:105610007B681B6814333B623B6A53E8003FFB61C5
:10562000FB6923F00103BB647B681B681433BA6C0D
:10563000FA62BB62B96AFA6A41E800237B627B6A5C
:10564000002BE5D17B681B6B012B19D17B681B6894
:105650000C33FB60FB6853E8003FBB60BB6823F082
:1056600010037B647B681B680C337A6CBA617B61C6
:105670007969BA6941E800233B613B69002BE5D1B8
:105680007B68202283F83E207B6800221A6300BFDB
:105690005437BD465DF8047B704780B584B000AFD9
:1056A00078607B689B6BFB60FB680022DA85FB6897
:1056B0000022DA84F868FFF7CBFE00BF1037BD4642
:1056C00080BD80B485B000AF78607B6893F83D30D2
:1056D000DBB2212B3ED17B689B68B3F5805F14D190
:1056E0007B681B69002B10D17B681B6AFB60FB6821
:1056F0001B881A467B681B68C2F308025A607B68E5
:105700001B6A9A1C7B681A6208E07B681B6A591C3A
:105710007A6811621A787B681B685A607B68DB8C38
:105720009BB2013B9BB27A681946D184002B0FD102
:105730007B681B68DA687B681B6822F08002DA608D
:105740007B681B68DA687B681B6842F04002DA609D
:10575000002300E0022318461437BD465DF8047BA1
:10576000704780B582B000AF78607B681B68DA68EC
:105770007B681B6822F04002DA607B68202283F895
:105780003D207868FFF75AFE002318460837BD46CB
:1057900080BD80B58CB000AF78607B6893F83E30F8
:1057A000DBB2222B40F0AB807B689B68B3F5805F57
:1057B00017D17B681B69002B13D10023FB627B6828
:1057C0009B6ABB627B681B685B689BB2C3F3080380
:1057D0009AB2BB6A1A807B689B6A9A1C7B689A6241
:1057E00026E07B689B6AFB620023BB627B689B6848
:1057F000B3F5805F07D07B689B68002B0AD17B687C
:105800001B69002B06D17B681B685B68DAB2FB6AF8
:105810001A7008E07B681B685B68DBB203F07F03EB
:10582000DAB2FB6A1A707B689B6A5A1C7B689A62C0
:105830007B68DB8D9BB2013B9BB27A681946D185B0
:10584000002B5AD17B681B68DA687B681B6822F0E2
:105850002002DA607B681B68DA687B681B6822F4C8
:105860008072DA607B681B685A697B681B6822F06B
:1058700001025A617B68202283F83E207B681B6B03
:10588000012B35D17B6800221A637B681B680C33BF
:105890007B617B6953E8003F3B613B6923F0100368
:1058A0007B627B681B680C337A6A3A62FB61F96938
:1058B0003A6A41E80023BB61BB69002BE5D17B68F4
:1058C0001B681B6803F01003102B0AD10023FB6038
:1058D0007B681B681B68FB607B681B685B68FB6000
:1058E000FB687B689B8D19467868FFF7BBFD02E07B
:1058F0007868FCF7DFF8002302E0002300E00223D1
:1059000018463037BD4680BD2DE9B04FC0B000AF5E
:10591000C7F8F400D7F8F4301B681B6923F4405033
:10592000D7F8F430D968D7F8F4301A6840EA0103A0
:105930001361D7F8F4309A68D7F8F4301B691A432A
:10594000D7F8F4305B691A43D7F8F430DB691343B6
:10595000C7F8F830D7F8F4301B68DB6823F4164139
:1059600021F00C01D7F8F4301A68D7F8F8300B435F
:10597000D360D7F8F4301B685B6923F44070D7F824
:10598000F4309969D7F8F4301A6840EA010353619A
:10599000D7F8F4301A688F4B9A4205D0D7F8F43014
:1059A0001A688D4B9A4204D1FEF748FAC7F8FC00FA
:1059B00003E0FEF72FFAC7F8FC00D7F8F430DB69F4
:1059C000B3F5004F40F00C81D7F8FC300022C7F847
:1059D000E830C7F8EC20D7E93A4522462B46911823
:1059E000B9655B41FB65D7E91623214612EB010837
:1059F000294643EB01094FF000024FF000034FEA44
:105A0000C90343EA58734FEAC802904699462346B1
:105A100018EB0303C7F8E0302B4649EB0303C7F844
:105A2000E430D7F8F4305B680022C7F8D830C7F804
:105A3000DC20D7E936120B46DB183B65134642EBF8
:105A400003037B65D7E91423D7E93801FBF71CF979
:105A500002460B46614BA3FB02235B091C01D7F8EE
:105A6000FC300022C7F8D030C7F8D420D7E93489F9
:105A700042464B469118B9645B41FB64D7E9122357
:105A8000414612EB010A494643EB010B4FF000027D
:105A90004FF000034FEACB0343EA5A734FEACA02BE
:105AA00092469B4643461AEB0303C7F8C8304B4661
:105AB0004BEB0303C7F8CC30D7F8F4305B68002217
:105AC000C7F8C030C7F8C420D7E930120B46DB183E
:105AD0003B64134642EB03037B64D7E91023D7E909
